{
  "_format": "hh-sol-artifact-1",
  "contractName": "Report",
  "sourceName": "contracts/Report.sol",
  "abi": [
    {
      "inputs": [],
      "name": "LoginAsAdmin",
      "outputs": [
        {
          "internalType": "bool",
          "name": "",
          "type": "bool"
        }
      ],
      "stateMutability": "view",
      "type": "function"
    },
    {
      "inputs": [
        {
          "internalType": "string",
          "name": "_crops",
          "type": "string"
        },
        {
          "internalType": "string",
          "name": "_state",
          "type": "string"
        },
        {
          "internalType": "uint256",
          "name": "_price",
          "type": "uint256"
        },
        {
          "internalType": "uint256",
          "name": "_quantity",
          "type": "uint256"
        },
        {
          "internalType": "string",
          "name": "_terms",
          "type": "string"
        },
        {
          "internalType": "uint256",
          "name": "_payment",
          "type": "uint256"
        }
      ],
      "name": "ReportCrime",
      "outputs": [],
      "stateMutability": "nonpayable",
      "type": "function"
    },
    {
      "inputs": [],
      "name": "viewReports",
      "outputs": [
        {
          "components": [
            {
              "internalType": "uint256",
              "name": "timestamp",
              "type": "uint256"
            },
            {
              "internalType": "string",
              "name": "crops",
              "type": "string"
            },
            {
              "internalType": "string",
              "name": "state",
              "type": "string"
            },
            {
              "internalType": "uint256",
              "name": "price",
              "type": "uint256"
            },
            {
              "internalType": "uint256",
              "name": "quantity",
              "type": "uint256"
            },
            {
              "internalType": "string",
              "name": "terms",
              "type": "string"
            },
            {
              "internalType": "uint256",
              "name": "payment",
              "type": "uint256"
            }
          ],
          "internalType": "struct Report.report[]",
          "name": "",
          "type": "tuple[]"
        }
      ],
      "stateMutability": "view",
      "type": "function"
    }
  ],
  "bytecode": "0x6080604052604051806020016040528073cab9b57a22a721f45af5f002a40fb6818c20346973ffffffffffffffffffffffffffffffffffffffff1673ffffffffffffffffffffffffffffffffffffffff168152506001906001610063929190610075565b5034801561006f575f80fd5b5061010c565b82600281019282156100e0579160200282015b828111156100df578251825f6101000a81548173ffffffffffffffffffffffffffffffffffffffff021916908373ffffffffffffffffffffffffffffffffffffffff16021790555091602001919060010190610088565b5b5090506100ed91906100f1565b5090565b5b80821115610108575f815f9055506001016100f2565b5090565b610cc1806101195f395ff3fe608060405234801561000f575f80fd5b506004361061003f575f3560e01c806312beb00f14610043578063446e35ba146100615780638392c50f1461007d575b5f80fd5b61004b61009b565b6040516100589190610686565b60405180910390f35b61007b6004803603810190610076919061080d565b6102cd565b005b610085610407565b6040516100929190610904565b60405180910390f35b60605f805480602002602001604051908101604052809291908181526020015f905b828210156102c4578382905f5260205f2090600702016040518060e00160405290815f82015481526020016001820180546100f79061094a565b80601f01602080910402602001604051908101604052809291908181526020018280546101239061094a565b801561016e5780601f106101455761010080835404028352916020019161016e565b820191905f5260205f20905b81548152906001019060200180831161015157829003601f168201915b505050505081526020016002820180546101879061094a565b80601f01602080910402602001604051908101604052809291908181526020018280546101b39061094a565b80156101fe5780601f106101d5576101008083540402835291602001916101fe565b820191905f5260205f20905b8154815290600101906020018083116101e157829003601f168201915b50505050508152602001600382015481526020016004820154815260200160058201805461022b9061094a565b80601f01602080910402602001604051908101604052809291908181526020018280546102579061094a565b80156102a25780601f10610279576101008083540402835291602001916102a2565b820191905f5260205f20905b81548152906001019060200180831161028557829003601f168201915b50505050508152602001600682015481525050815260200190600101906100bd565b50505050905090565b5f73ffffffffffffffffffffffffffffffffffffffff163373ffffffffffffffffffffffffffffffffffffffff160361033b576040517f08c379a0000000000000000000000000000000000000000000000000000000008152600401610332906109d4565b60405180910390fd5b5f6040518060e0016040528042815260200188815260200187815260200186815260200185815260200184815260200183815250908060018154018082558091505060019003905f5260205f2090600702015f909190919091505f820151815f015560208201518160010190816103b29190610b8f565b5060408201518160020190816103c89190610b8f565b50606082015181600301556080820151816004015560a08201518160050190816103f29190610b8f565b5060c082015181600601555050505050505050565b5f805f90505b6002811015610494573373ffffffffffffffffffffffffffffffffffffffff166001826002811061044157610440610c5e565b5b015f9054906101000a900473ffffffffffffffffffffffffffffffffffffffff1673ffffffffffffffffffffffffffffffffffffffff1603610487576001915050610499565b808060010191505061040d565b505f90505b90565b5f81519050919050565b5f82825260208201905092915050565b5f819050602082019050919050565b5f819050919050565b6104d7816104c5565b82525050565b5f81519050919050565b5f82825260208201905092915050565b8281835e5f83830152505050565b5f601f19601f8301169050919050565b5f61051f826104dd565b61052981856104e7565b93506105398185602086016104f7565b61054281610505565b840191505092915050565b5f60e083015f8301516105625f8601826104ce565b506020830151848203602086015261057a8282610515565b915050604083015184820360408601526105948282610515565b91505060608301516105a960608601826104ce565b5060808301516105bc60808601826104ce565b5060a083015184820360a08601526105d48282610515565b91505060c08301516105e960c08601826104ce565b508091505092915050565b5f6105ff838361054d565b905092915050565b5f602082019050919050565b5f61061d8261049c565b61062781856104a6565b935083602082028501610639856104b6565b805f5b85811015610674578484038952815161065585826105f4565b945061066083610607565b925060208a0199505060018101905061063c565b50829750879550505050505092915050565b5f6020820190508181035f83015261069e8184610613565b905092915050565b5f604051905090565b5f80fd5b5f80fd5b5f80fd5b5f80fd5b7f4e487b71000000000000000000000000000000000000000000000000000000005f52604160045260245ffd5b6106f582610505565b810181811067ffffffffffffffff82111715610714576107136106bf565b5b80604052505050565b5f6107266106a6565b905061073282826106ec565b919050565b5f67ffffffffffffffff821115610751576107506106bf565b5b61075a82610505565b9050602081019050919050565b828183375f83830152505050565b5f61078761078284610737565b61071d565b9050828152602081018484840111156107a3576107a26106bb565b5b6107ae848285610767565b509392505050565b5f82601f8301126107ca576107c96106b7565b5b81356107da848260208601610775565b91505092915050565b6107ec816104c5565b81146107f6575f80fd5b50565b5f81359050610807816107e3565b92915050565b5f805f805f8060c08789031215610827576108266106af565b5b5f87013567ffffffffffffffff811115610844576108436106b3565b5b61085089828a016107b6565b965050602087013567ffffffffffffffff811115610871576108706106b3565b5b61087d89828a016107b6565b955050604061088e89828a016107f9565b945050606061089f89828a016107f9565b935050608087013567ffffffffffffffff8111156108c0576108bf6106b3565b5b6108cc89828a016107b6565b92505060a06108dd89828a016107f9565b9150509295509295509295565b5f8115159050919050565b6108fe816108ea565b82525050565b5f6020820190506109175f8301846108f5565b92915050565b7f4e487b71000000000000000000000000000000000000000000000000000000005f52602260045260245ffd5b5f600282049050600182168061096157607f821691505b6020821081036109745761097361091d565b5b50919050565b5f82825260208201905092915050565b7f496e76616c6964204164647265737300000000000000000000000000000000005f82015250565b5f6109be600f8361097a565b91506109c98261098a565b602082019050919050565b5f6020820190508181035f8301526109eb816109b2565b9050919050565b5f819050815f5260205f209050919050565b5f6020601f8301049050919050565b5f82821b905092915050565b5f60088302610a4e7fffffffffffffffffffffffffffffffffffffffffffffffffffffffffffffffff82610a13565b610a588683610a13565b95508019841693508086168417925050509392505050565b5f819050919050565b5f610a93610a8e610a89846104c5565b610a70565b6104c5565b9050919050565b5f819050919050565b610aac83610a79565b610ac0610ab882610a9a565b848454610a1f565b825550505050565b5f90565b610ad4610ac8565b610adf818484610aa3565b505050565b5b81811015610b0257610af75f82610acc565b600181019050610ae5565b5050565b601f821115610b4757610b18816109f2565b610b2184610a04565b81016020851015610b30578190505b610b44610b3c85610a04565b830182610ae4565b50505b505050565b5f82821c905092915050565b5f610b675f1984600802610b4c565b1980831691505092915050565b5f610b7f8383610b58565b9150826002028217905092915050565b610b98826104dd565b67ffffffffffffffff811115610bb157610bb06106bf565b5b610bbb825461094a565b610bc6828285610b06565b5f60209050601f831160018114610bf7575f8415610be5578287015190505b610bef8582610b74565b865550610c56565b601f198416610c05866109f2565b5f5b82811015610c2c57848901518255600182019150602085019450602081019050610c07565b86831015610c495784890151610c45601f891682610b58565b8355505b6001600288020188555050505b505050505050565b7f4e487b71000000000000000000000000000000000000000000000000000000005f52603260045260245ffdfea2646970667358221220d3149ebd966849608e891a6f3ec67eb59819e62c62c2e83e4c438739a2506f3e64736f6c634300081a0033",
  "linkReferences": {},
  "deployedLinkReferences": {}
}